{
  "contractName": "Doods",
  "abi": [
    {
      "inputs": [
        {
          "internalType": "bytes32",
          "name": "_rootHash",
          "type": "bytes32"
        }
      ],
      "stateMutability": "nonpayable",
      "type": "constructor"
    },
    {
      "anonymous": false,
      "inputs": [
        {
          "indexed": true,
          "internalType": "address",
          "name": "owner",
          "type": "address"
        },
        {
          "indexed": true,
          "internalType": "address",
          "name": "approved",
          "type": "address"
        },
        {
          "indexed": true,
          "internalType": "uint256",
          "name": "tokenId",
          "type": "uint256"
        }
      ],
      "name": "Approval",
      "type": "event"
    },
    {
      "anonymous": false,
      "inputs": [
        {
          "indexed": true,
          "internalType": "address",
          "name": "owner",
          "type": "address"
        },
        {
          "indexed": true,
          "internalType": "address",
          "name": "operator",
          "type": "address"
        },
        {
          "indexed": false,
          "internalType": "bool",
          "name": "approved",
          "type": "bool"
        }
      ],
      "name": "ApprovalForAll",
      "type": "event"
    },
    {
      "anonymous": false,
      "inputs": [
        {
          "indexed": true,
          "internalType": "address",
          "name": "previousOwner",
          "type": "address"
        },
        {
          "indexed": true,
          "internalType": "address",
          "name": "newOwner",
          "type": "address"
        }
      ],
      "name": "OwnershipTransferred",
      "type": "event"
    },
    {
      "anonymous": false,
      "inputs": [
        {
          "indexed": true,
          "internalType": "address",
          "name": "from",
          "type": "address"
        },
        {
          "indexed": true,
          "internalType": "address",
          "name": "to",
          "type": "address"
        },
        {
          "indexed": true,
          "internalType": "uint256",
          "name": "tokenId",
          "type": "uint256"
        }
      ],
      "name": "Transfer",
      "type": "event"
    },
    {
      "inputs": [],
      "name": "_baseUri",
      "outputs": [
        {
          "internalType": "string",
          "name": "",
          "type": "string"
        }
      ],
      "stateMutability": "view",
      "type": "function",
      "constant": true
    },
    {
      "inputs": [],
      "name": "_owner",
      "outputs": [
        {
          "internalType": "address",
          "name": "",
          "type": "address"
        }
      ],
      "stateMutability": "view",
      "type": "function",
      "constant": true
    },
    {
      "inputs": [
        {
          "internalType": "address",
          "name": "to",
          "type": "address"
        },
        {
          "internalType": "uint256",
          "name": "tokenId",
          "type": "uint256"
        }
      ],
      "name": "approve",
      "outputs": [],
      "stateMutability": "nonpayable",
      "type": "function"
    },
    {
      "inputs": [],
      "name": "availableToMint",
      "outputs": [
        {
          "internalType": "uint256",
          "name": "",
          "type": "uint256"
        }
      ],
      "stateMutability": "view",
      "type": "function",
      "constant": true
    },
    {
      "inputs": [
        {
          "internalType": "address",
          "name": "owner",
          "type": "address"
        }
      ],
      "name": "balanceOf",
      "outputs": [
        {
          "internalType": "uint256",
          "name": "",
          "type": "uint256"
        }
      ],
      "stateMutability": "view",
      "type": "function",
      "constant": true
    },
    {
      "inputs": [
        {
          "internalType": "uint256",
          "name": "tokenId",
          "type": "uint256"
        }
      ],
      "name": "getApproved",
      "outputs": [
        {
          "internalType": "address",
          "name": "",
          "type": "address"
        }
      ],
      "stateMutability": "view",
      "type": "function",
      "constant": true
    },
    {
      "inputs": [
        {
          "internalType": "address",
          "name": "owner",
          "type": "address"
        },
        {
          "internalType": "address",
          "name": "operator",
          "type": "address"
        }
      ],
      "name": "isApprovedForAll",
      "outputs": [
        {
          "internalType": "bool",
          "name": "",
          "type": "bool"
        }
      ],
      "stateMutability": "view",
      "type": "function",
      "constant": true
    },
    {
      "inputs": [],
      "name": "isPresaleActive",
      "outputs": [
        {
          "internalType": "bool",
          "name": "",
          "type": "bool"
        }
      ],
      "stateMutability": "view",
      "type": "function",
      "constant": true
    },
    {
      "inputs": [],
      "name": "isPublicActive",
      "outputs": [
        {
          "internalType": "bool",
          "name": "",
          "type": "bool"
        }
      ],
      "stateMutability": "view",
      "type": "function",
      "constant": true
    },
    {
      "inputs": [
        {
          "internalType": "address",
          "name": "",
          "type": "address"
        }
      ],
      "name": "mintDuringPresale",
      "outputs": [
        {
          "internalType": "uint256",
          "name": "",
          "type": "uint256"
        }
      ],
      "stateMutability": "view",
      "type": "function",
      "constant": true
    },
    {
      "inputs": [
        {
          "internalType": "address",
          "name": "",
          "type": "address"
        }
      ],
      "name": "mintDuringPublic",
      "outputs": [
        {
          "internalType": "uint256",
          "name": "",
          "type": "uint256"
        }
      ],
      "stateMutability": "view",
      "type": "function",
      "constant": true
    },
    {
      "inputs": [],
      "name": "mintForPresale",
      "outputs": [
        {
          "internalType": "uint256",
          "name": "",
          "type": "uint256"
        }
      ],
      "stateMutability": "view",
      "type": "function",
      "constant": true
    },
    {
      "inputs": [],
      "name": "mintForPublic",
      "outputs": [
        {
          "internalType": "uint256",
          "name": "",
          "type": "uint256"
        }
      ],
      "stateMutability": "view",
      "type": "function",
      "constant": true
    },
    {
      "inputs": [],
      "name": "name",
      "outputs": [
        {
          "internalType": "string",
          "name": "",
          "type": "string"
        }
      ],
      "stateMutability": "view",
      "type": "function",
      "constant": true
    },
    {
      "inputs": [],
      "name": "owner",
      "outputs": [
        {
          "internalType": "address",
          "name": "",
          "type": "address"
        }
      ],
      "stateMutability": "view",
      "type": "function",
      "constant": true
    },
    {
      "inputs": [
        {
          "internalType": "uint256",
          "name": "tokenId",
          "type": "uint256"
        }
      ],
      "name": "ownerOf",
      "outputs": [
        {
          "internalType": "address",
          "name": "",
          "type": "address"
        }
      ],
      "stateMutability": "view",
      "type": "function",
      "constant": true
    },
    {
      "inputs": [],
      "name": "pricePerNFT",
      "outputs": [
        {
          "internalType": "uint256",
          "name": "",
          "type": "uint256"
        }
      ],
      "stateMutability": "view",
      "type": "function",
      "constant": true
    },
    {
      "inputs": [],
      "name": "renounceOwnership",
      "outputs": [],
      "stateMutability": "nonpayable",
      "type": "function"
    },
    {
      "inputs": [],
      "name": "revealed",
      "outputs": [
        {
          "internalType": "bool",
          "name": "",
          "type": "bool"
        }
      ],
      "stateMutability": "view",
      "type": "function",
      "constant": true
    },
    {
      "inputs": [],
      "name": "rootHash",
      "outputs": [
        {
          "internalType": "bytes32",
          "name": "",
          "type": "bytes32"
        }
      ],
      "stateMutability": "view",
      "type": "function",
      "constant": true
    },
    {
      "inputs": [
        {
          "internalType": "address",
          "name": "from",
          "type": "address"
        },
        {
          "internalType": "address",
          "name": "to",
          "type": "address"
        },
        {
          "internalType": "uint256",
          "name": "tokenId",
          "type": "uint256"
        }
      ],
      "name": "safeTransferFrom",
      "outputs": [],
      "stateMutability": "nonpayable",
      "type": "function"
    },
    {
      "inputs": [
        {
          "internalType": "address",
          "name": "from",
          "type": "address"
        },
        {
          "internalType": "address",
          "name": "to",
          "type": "address"
        },
        {
          "internalType": "uint256",
          "name": "tokenId",
          "type": "uint256"
        },
        {
          "internalType": "bytes",
          "name": "data",
          "type": "bytes"
        }
      ],
      "name": "safeTransferFrom",
      "outputs": [],
      "stateMutability": "nonpayable",
      "type": "function"
    },
    {
      "inputs": [
        {
          "internalType": "address",
          "name": "operator",
          "type": "address"
        },
        {
          "internalType": "bool",
          "name": "approved",
          "type": "bool"
        }
      ],
      "name": "setApprovalForAll",
      "outputs": [],
      "stateMutability": "nonpayable",
      "type": "function"
    },
    {
      "inputs": [],
      "name": "symbol",
      "outputs": [
        {
          "internalType": "string",
          "name": "",
          "type": "string"
        }
      ],
      "stateMutability": "view",
      "type": "function",
      "constant": true
    },
    {
      "inputs": [
        {
          "internalType": "uint256",
          "name": "index",
          "type": "uint256"
        }
      ],
      "name": "tokenByIndex",
      "outputs": [
        {
          "internalType": "uint256",
          "name": "",
          "type": "uint256"
        }
      ],
      "stateMutability": "view",
      "type": "function",
      "constant": true
    },
    {
      "inputs": [
        {
          "internalType": "address",
          "name": "owner",
          "type": "address"
        },
        {
          "internalType": "uint256",
          "name": "index",
          "type": "uint256"
        }
      ],
      "name": "tokenOfOwnerByIndex",
      "outputs": [
        {
          "internalType": "uint256",
          "name": "",
          "type": "uint256"
        }
      ],
      "stateMutability": "view",
      "type": "function",
      "constant": true
    },
    {
      "inputs": [],
      "name": "totalSupply",
      "outputs": [
        {
          "internalType": "uint256",
          "name": "",
          "type": "uint256"
        }
      ],
      "stateMutability": "view",
      "type": "function",
      "constant": true
    },
    {
      "inputs": [
        {
          "internalType": "address",
          "name": "from",
          "type": "address"
        },
        {
          "internalType": "address",
          "name": "to",
          "type": "address"
        },
        {
          "internalType": "uint256",
          "name": "tokenId",
          "type": "uint256"
        }
      ],
      "name": "transferFrom",
      "outputs": [],
      "stateMutability": "nonpayable",
      "type": "function"
    },
    {
      "inputs": [
        {
          "internalType": "address",
          "name": "newOwner",
          "type": "address"
        }
      ],
      "name": "transferOwnership",
      "outputs": [],
      "stateMutability": "nonpayable",
      "type": "function"
    },
    {
      "inputs": [
        {
          "internalType": "bytes32",
          "name": "_newHash",
          "type": "bytes32"
        }
      ],
      "name": "updateHash",
      "outputs": [],
      "stateMutability": "nonpayable",
      "type": "function"
    },
    {
      "inputs": [
        {
          "internalType": "string",
          "name": "_newBaseUri",
          "type": "string"
        }
      ],
      "name": "updateBaseUri",
      "outputs": [],
      "stateMutability": "nonpayable",
      "type": "function"
    },
    {
      "inputs": [],
      "name": "togglePublicMint",
      "outputs": [],
      "stateMutability": "nonpayable",
      "type": "function"
    },
    {
      "inputs": [],
      "name": "togglePresaleMint",
      "outputs": [],
      "stateMutability": "nonpayable",
      "type": "function"
    },
    {
      "inputs": [],
      "name": "reveal",
      "outputs": [],
      "stateMutability": "nonpayable",
      "type": "function"
    },
    {
      "inputs": [
        {
          "internalType": "bytes32[]",
          "name": "proof",
          "type": "bytes32[]"
        }
      ],
      "name": "isAllowed",
      "outputs": [
        {
          "internalType": "bool",
          "name": "",
          "type": "bool"
        }
      ],
      "stateMutability": "view",
      "type": "function",
      "constant": true
    },
    {
      "inputs": [
        {
          "internalType": "bytes32[]",
          "name": "proof",
          "type": "bytes32[]"
        },
        {
          "internalType": "uint256",
          "name": "amount",
          "type": "uint256"
        }
      ],
      "name": "presaleMint",
      "outputs": [],
      "stateMutability": "payable",
      "type": "function",
      "payable": true
    },
    {
      "inputs": [
        {
          "internalType": "uint256",
          "name": "amount",
          "type": "uint256"
        }
      ],
      "name": "publicMint",
      "outputs": [],
      "stateMutability": "payable",
      "type": "function",
      "payable": true
    },
    {
      "inputs": [],
      "name": "withdrawFunds",
      "outputs": [],
      "stateMutability": "payable",
      "type": "function",
      "payable": true
    },
    {
      "inputs": [
        {
          "internalType": "bytes4",
          "name": "interfaceId",
          "type": "bytes4"
        }
      ],
      "name": "supportsInterface",
      "outputs": [
        {
          "internalType": "bool",
          "name": "",
          "type": "bool"
        }
      ],
      "stateMutability": "view",
      "type": "function",
      "constant": true
    },
    {
      "inputs": [
        {
          "internalType": "uint256",
          "name": "tokenId",
          "type": "uint256"
        }
      ],
      "name": "tokenURI",
      "outputs": [
        {
          "internalType": "string",
          "name": "",
          "type": "string"
        }
      ],
      "stateMutability": "view",
      "type": "function",
      "constant": true
    }
  ],
  "bytecode": "0x61010060405261115c608052600560a052601460c0526611c37937e0800060e0523480156200002d57600080fd5b5060405162002b8e38038062002b8e833981016040819052620000509162000139565b60405180604001604052806005815260200164446f6f647360d81b815250604051806040016040528060048152602001631113d3d160e21b81525081600090816200009c9190620001f8565b506001620000ab8282620001f8565b505050620000c8620000c2620000e360201b60201c565b620000e7565b600c55600b80546001600160a01b03191633179055620002c4565b3390565b600a80546001600160a01b038381166001600160a01b0319831681179093556040519116919082907f8be0079c531659141344cd1fd0a4f28419497f9722a3daafe3b4186f6b6457e090600090a35050565b6000602082840312156200014c57600080fd5b5051919050565b634e487b7160e01b600052604160045260246000fd5b600181811c908216806200017e57607f821691505b6020821081036200019f57634e487b7160e01b600052602260045260246000fd5b50919050565b601f821115620001f357600081815260208120601f850160051c81016020861015620001ce5750805b601f850160051c820191505b81811015620001ef57828155600101620001da565b5050505b505050565b81516001600160401b0381111562000214576200021462000153565b6200022c8162000225845462000169565b84620001a5565b602080601f8311600181146200026457600084156200024b5750858301515b600019600386901b1c1916600185901b178555620001ef565b600085815260208120601f198616915b82811015620002955788860151825594840194600190910190840162000274565b5085821015620002b45787850151600019600388901b60f8161c191681555b5050505050600190811b01905550565b60805160a05160c05160e051612866620003286000396000818161028701528181610af6015261135f0152600081816103450152610aa601526000818161056d015261130f01526000818161053901528181610b6a01526113d301526128666000f3fe60806040526004361061023b5760003560e01c80636352211e1161012e578063a475b5dd116100ab578063e985e9c51161006f578063e985e9c5146106c3578063ed4dcde61461070c578063f14a201714610721578063f2fde38b1461074e578063fde5f5481461076e57600080fd5b8063a475b5dd1461062e578063b2bdfa7b14610643578063b88d4fde14610663578063c87b56dd14610683578063cf7cd8fa146106a357600080fd5b80638da5cb5b116100f25780638da5cb5b1461058f578063908e7938146105ad57806395d89b41146105da578063a22cb465146105ef578063a3330d251461060f57600080fd5b80636352211e146104d257806370a08231146104f2578063715018a61461051257806374601c3c14610527578063756f27af1461055b57600080fd5b80632db11544116101bc57806342842e0e1161018057806342842e0e14610437578063438114d0146104575780634f6ccce714610477578063518302271461049757806360d938dc146104b857600080fd5b80632db11544146103ba5780632f745c59146103cd57806339f7e37f146103ed5780633e63eb2a1461040d5780634047638d1461042257600080fd5b806316864b961161020357806316864b961461033357806318160ddd146103675780631d80009a1461037c57806323b872dd1461039257806324600fc3146103b257600080fd5b806301ffc9a7146102405780630628aa701461027557806306fdde03146102b7578063081812fc146102d9578063095ea7b314610311575b600080fd5b34801561024c57600080fd5b5061026061025b366004612010565b610781565b60405190151581526020015b60405180910390f35b34801561028157600080fd5b506102a97f000000000000000000000000000000000000000000000000000000000000000081565b60405190815260200161026c565b3480156102c357600080fd5b506102cc610792565b60405161026c9190612085565b3480156102e557600080fd5b506102f96102f4366004612098565b610824565b6040516001600160a01b03909116815260200161026c565b34801561031d57600080fd5b5061033161032c3660046120cd565b61084b565b005b34801561033f57600080fd5b506102a97f000000000000000000000000000000000000000000000000000000000000000081565b34801561037357600080fd5b506008546102a9565b34801561038857600080fd5b506102a9600c5481565b34801561039e57600080fd5b506103316103ad3660046120f7565b610965565b610331610996565b6103316103c8366004612098565b6109f6565b3480156103d957600080fd5b506102a96103e83660046120cd565b610c41565b3480156103f957600080fd5b506103316104083660046121d2565b610cd7565b34801561041957600080fd5b506102cc610cef565b34801561042e57600080fd5b50610331610d7d565b34801561044357600080fd5b506103316104523660046120f7565b610da2565b34801561046357600080fd5b50610331610472366004612098565b610dbd565b34801561048357600080fd5b506102a9610492366004612098565b610dca565b3480156104a357600080fd5b50600a5461026090600160a01b900460ff1681565b3480156104c457600080fd5b50600f546102609060ff1681565b3480156104de57600080fd5b506102f96104ed366004612098565b610e5d565b3480156104fe57600080fd5b506102a961050d36600461221b565b610ebd565b34801561051e57600080fd5b50610331610f43565b34801561053357600080fd5b506102a97f000000000000000000000000000000000000000000000000000000000000000081565b34801561056757600080fd5b506102a97f000000000000000000000000000000000000000000000000000000000000000081565b34801561059b57600080fd5b50600a546001600160a01b03166102f9565b3480156105b957600080fd5b506102a96105c836600461221b565b600d6020526000908152604090205481565b3480156105e657600080fd5b506102cc610f57565b3480156105fb57600080fd5b5061033161060a366004612236565b610f66565b34801561061b57600080fd5b50600f5461026090610100900460ff1681565b34801561063a57600080fd5b50610331610f71565b34801561064f57600080fd5b50600b546102f9906001600160a01b031681565b34801561066f57600080fd5b5061033161067e366004612272565b610f8e565b34801561068f57600080fd5b506102cc61069e366004612098565b610fc6565b3480156106af57600080fd5b506102606106be3660046122ee565b6110ef565b3480156106cf57600080fd5b506102606106de366004612394565b6001600160a01b03918216600090815260056020908152604080832093909416825291909152205460ff1690565b34801561071857600080fd5b50610331611137565b34801561072d57600080fd5b506102a961073c36600461221b565b600e6020526000908152604090205481565b34801561075a57600080fd5b5061033161076936600461221b565b611153565b61033161077c3660046123c7565b6111c9565b600061078c826114a4565b92915050565b6060600080546107a190612442565b80601f01602080910402602001604051908101604052809291908181526020018280546107cd90612442565b801561081a5780601f106107ef5761010080835404028352916020019161081a565b820191906000526020600020905b8154815290600101906020018083116107fd57829003601f168201915b5050505050905090565b600061082f826114c9565b506000908152600460205260409020546001600160a01b031690565b600061085682610e5d565b9050806001600160a01b0316836001600160a01b0316036108c85760405162461bcd60e51b815260206004820152602160248201527f4552433732313a20617070726f76616c20746f2063757272656e74206f776e656044820152603960f91b60648201526084015b60405180910390fd5b336001600160a01b03821614806108e457506108e481336106de565b6109565760405162461bcd60e51b815260206004820152603e60248201527f4552433732313a20617070726f76652063616c6c6572206973206e6f7420746f60448201527f6b656e206f776e6572206e6f7220617070726f76656420666f7220616c6c000060648201526084016108bf565b6109608383611528565b505050565b61096f3382611596565b61098b5760405162461bcd60e51b81526004016108bf90612476565b610960838383611615565b61099e6117bc565b604051600090339047908381818185875af1925050503d80600081146109e0576040519150601f19603f3d011682016040523d82523d6000602084013e6109e5565b606091505b50509050806109f357600080fd5b50565b600f5460ff1615610a3d5760405162461bcd60e51b815260206004820152601160248201527050726573616c652069732061637469766560781b60448201526064016108bf565b600f54610100900460ff16610a945760405162461bcd60e51b815260206004820152601960248201527f5075626c69632073616c65206973206e6f74206163746976650000000000000060448201526064016108bf565b336000908152600e60205260409020547f000000000000000000000000000000000000000000000000000000000000000090610ad19083906124da565b1115610aef5760405162461bcd60e51b81526004016108bf906124f2565b34610b1a827f000000000000000000000000000000000000000000000000000000000000000061254f565b1015610b685760405162461bcd60e51b815260206004820152601f60248201527f53656e6420656e6f7567682066756e647320746f20636f766572206d696e740060448201526064016108bf565b7f000000000000000000000000000000000000000000000000000000000000000081610b9360085490565b610b9d91906124da565b1115610bd95760405162461bcd60e51b815260206004820152600b60248201526a26b4b73a32b21027baba1760a91b60448201526064016108bf565b6000610be460085490565b905060005b82811015610c1857610c0633610bfe8461256e565b935083611816565b80610c108161256e565b915050610be9565b50336000908152600e602052604081208054849290610c389084906124da565b90915550505050565b6000610c4c83610ebd565b8210610cae5760405162461bcd60e51b815260206004820152602b60248201527f455243373231456e756d657261626c653a206f776e657220696e646578206f7560448201526a74206f6620626f756e647360a81b60648201526084016108bf565b506001600160a01b03919091166000908152600660209081526040808320938352929052205490565b610cdf6117bc565b6010610ceb82826125d5565b5050565b60108054610cfc90612442565b80601f0160208091040260200160405190810160405280929190818152602001828054610d2890612442565b8015610d755780601f10610d4a57610100808354040283529160200191610d75565b820191906000526020600020905b815481529060010190602001808311610d5857829003601f168201915b505050505081565b610d856117bc565b600f805461ff001981166101009182900460ff1615909102179055565b61096083838360405180602001604052806000815250610f8e565b610dc56117bc565b600c55565b6000610dd560085490565b8210610e385760405162461bcd60e51b815260206004820152602c60248201527f455243373231456e756d657261626c653a20676c6f62616c20696e646578206f60448201526b7574206f6620626f756e647360a01b60648201526084016108bf565b60088281548110610e4b57610e4b612695565b90600052602060002001549050919050565b6000818152600260205260408120546001600160a01b03168061078c5760405162461bcd60e51b8152602060048201526018602482015277115490cdcc8c4e881a5b9d985b1a59081d1bdad95b88125160421b60448201526064016108bf565b60006001600160a01b038216610f275760405162461bcd60e51b815260206004820152602960248201527f4552433732313a2061646472657373207a65726f206973206e6f7420612076616044820152683634b21037bbb732b960b91b60648201526084016108bf565b506001600160a01b031660009081526003602052604090205490565b610f4b6117bc565b610f556000611964565b565b6060600180546107a190612442565b610ceb3383836119b6565b610f796117bc565b600a805460ff60a01b1916600160a01b179055565b610f983383611596565b610fb45760405162461bcd60e51b81526004016108bf90612476565b610fc084848484611a84565b50505050565b6000818152600260205260409020546060906001600160a01b03166110475760405162461bcd60e51b815260206004820152603160248201527f45524337323155524953746f726167653a2055524920717565727920666f72206044820152703737b732bc34b9ba32b73a103a37b5b2b760791b60648201526084016108bf565b6000611051611ab7565b600a54909150600160a01b900460ff1615156000036110b057600081511161108857604051806020016040528060008152506110a9565b8060405160200161109991906126ab565b6040516020818303038152906040525b9392505050565b60008151116110ce57604051806020016040528060008152506110a9565b806110d884611ac6565b6040516020016110999291906126da565b50919050565b6040516bffffffffffffffffffffffff193360601b16602082015260009081906034016040516020818303038152906040528051906020012090506110a983600c5483611bc7565b61113f6117bc565b600f805460ff19811660ff90911615179055565b61115b6117bc565b6001600160a01b0381166111c05760405162461bcd60e51b815260206004820152602660248201527f4f776e61626c653a206e6577206f776e657220697320746865207a65726f206160448201526564647265737360d01b60648201526084016108bf565b6109f381611964565b600f5460ff166112135760405162461bcd60e51b815260206004820152601560248201527450726573616c65206973206e6f742061637469766560581b60448201526064016108bf565b600f54610100900460ff16156112635760405162461bcd60e51b81526020600482015260156024820152745075626c69632073616c652069732061637469766560581b60448201526064016108bf565b61129f8383808060200260200160405190810160405280939291908181526020018383602002808284376000920191909152506110ef92505050565b6112fd5760405162461bcd60e51b815260206004820152602960248201527f596f7520617265206e6f7420616c6c6f77656420746f206d696e7420696e207460448201526868697320706861736560b81b60648201526084016108bf565b336000908152600d60205260409020547f00000000000000000000000000000000000000000000000000000000000000009061133a9083906124da565b11156113585760405162461bcd60e51b81526004016108bf906124f2565b34611383827f000000000000000000000000000000000000000000000000000000000000000061254f565b10156113d15760405162461bcd60e51b815260206004820152601f60248201527f53656e6420656e6f7567682066756e647320746f20636f766572206d696e740060448201526064016108bf565b7f0000000000000000000000000000000000000000000000000000000000000000816113fc60085490565b61140691906124da565b11156114425760405162461bcd60e51b815260206004820152600b60248201526a26b4b73a32b21027baba1760a91b60448201526064016108bf565b600061144d60085490565b905060005b828110156114795761146733610bfe8461256e565b806114718161256e565b915050611452565b50336000908152600d6020526040812080548492906114999084906124da565b909155505050505050565b60006001600160e01b0319821663780e9d6360e01b148061078c575061078c82611bdd565b6000818152600260205260409020546001600160a01b03166109f35760405162461bcd60e51b8152602060048201526018602482015277115490cdcc8c4e881a5b9d985b1a59081d1bdad95b88125160421b60448201526064016108bf565b600081815260046020526040902080546001600160a01b0319166001600160a01b038416908117909155819061155d82610e5d565b6001600160a01b03167f8c5be1e5ebec7d5bd14f71427d1e84f3dd0314c0f7b2291e5b200ac8c7c3b92560405160405180910390a45050565b6000806115a283610e5d565b9050806001600160a01b0316846001600160a01b031614806115e957506001600160a01b0380821660009081526005602090815260408083209388168352929052205460ff165b8061160d5750836001600160a01b031661160284610824565b6001600160a01b0316145b949350505050565b826001600160a01b031661162882610e5d565b6001600160a01b03161461168c5760405162461bcd60e51b815260206004820152602560248201527f4552433732313a207472616e736665722066726f6d20696e636f72726563742060448201526437bbb732b960d91b60648201526084016108bf565b6001600160a01b0382166116ee5760405162461bcd60e51b8152602060048201526024808201527f4552433732313a207472616e7366657220746f20746865207a65726f206164646044820152637265737360e01b60648201526084016108bf565b6116f9838383611c2d565b611704600082611528565b6001600160a01b038316600090815260036020526040812080546001929061172d908490612719565b90915550506001600160a01b038216600090815260036020526040812080546001929061175b9084906124da565b909155505060008181526002602052604080822080546001600160a01b0319166001600160a01b0386811691821790925591518493918716917fddf252ad1be2c89b69c2b068fc378daa952ba7f163c4a11628f55a4df523b3ef91a4505050565b600a546001600160a01b03163314610f555760405162461bcd60e51b815260206004820181905260248201527f4f776e61626c653a2063616c6c6572206973206e6f7420746865206f776e657260448201526064016108bf565b6001600160a01b03821661186c5760405162461bcd60e51b815260206004820181905260248201527f4552433732313a206d696e7420746f20746865207a65726f206164647265737360448201526064016108bf565b6000818152600260205260409020546001600160a01b0316156118d15760405162461bcd60e51b815260206004820152601c60248201527f4552433732313a20746f6b656e20616c7265616479206d696e7465640000000060448201526064016108bf565b6118dd60008383611c2d565b6001600160a01b03821660009081526003602052604081208054600192906119069084906124da565b909155505060008181526002602052604080822080546001600160a01b0319166001600160a01b03861690811790915590518392907fddf252ad1be2c89b69c2b068fc378daa952ba7f163c4a11628f55a4df523b3ef908290a45050565b600a80546001600160a01b038381166001600160a01b0319831681179093556040519116919082907f8be0079c531659141344cd1fd0a4f28419497f9722a3daafe3b4186f6b6457e090600090a35050565b816001600160a01b0316836001600160a01b031603611a175760405162461bcd60e51b815260206004820152601960248201527f4552433732313a20617070726f766520746f2063616c6c65720000000000000060448201526064016108bf565b6001600160a01b03838116600081815260056020908152604080832094871680845294825291829020805460ff191686151590811790915591519182527f17307eab39ab6107e8899845ad3d59bd9653f200f220920489ca2b5937696c31910160405180910390a3505050565b611a8f848484611615565b611a9b84848484611c38565b610fc05760405162461bcd60e51b81526004016108bf90612730565b6060601080546107a190612442565b606081600003611aed5750506040805180820190915260018152600360fc1b602082015290565b8160005b8115611b175780611b018161256e565b9150611b109050600a83612798565b9150611af1565b60008167ffffffffffffffff811115611b3257611b32612133565b6040519080825280601f01601f191660200182016040528015611b5c576020820181803683370190505b5090505b841561160d57611b71600183612719565b9150611b7e600a866127ac565b611b899060306124da565b60f81b818381518110611b9e57611b9e612695565b60200101906001600160f81b031916908160001a905350611bc0600a86612798565b9450611b60565b600082611bd48584611d39565b14949350505050565b60006001600160e01b031982166380ac58cd60e01b1480611c0e57506001600160e01b03198216635b5e139f60e01b145b8061078c57506301ffc9a760e01b6001600160e01b031983161461078c565b610960838383611d86565b60006001600160a01b0384163b15611d2e57604051630a85bd0160e11b81526001600160a01b0385169063150b7a0290611c7c9033908990889088906004016127c0565b6020604051808303816000875af1925050508015611cb7575060408051601f3d908101601f19168201909252611cb4918101906127fd565b60015b611d14573d808015611ce5576040519150601f19603f3d011682016040523d82523d6000602084013e611cea565b606091505b508051600003611d0c5760405162461bcd60e51b81526004016108bf90612730565b805181602001fd5b6001600160e01b031916630a85bd0160e11b14905061160d565b506001949350505050565b600081815b8451811015611d7e57611d6a82868381518110611d5d57611d5d612695565b6020026020010151611e3e565b915080611d768161256e565b915050611d3e565b509392505050565b6001600160a01b038316611de157611ddc81600880546000838152600960205260408120829055600182018355919091527ff3f7a9fe364faab93b216da50a3214154f22a0a2b415b23a84c8169e8b636ee30155565b611e04565b816001600160a01b0316836001600160a01b031614611e0457611e048382611e6a565b6001600160a01b038216611e1b5761096081611f07565b826001600160a01b0316826001600160a01b031614610960576109608282611fb6565b6000818310611e5a5760008281526020849052604090206110a9565b5060009182526020526040902090565b60006001611e7784610ebd565b611e819190612719565b600083815260076020526040902054909150808214611ed4576001600160a01b03841660009081526006602090815260408083208584528252808320548484528184208190558352600790915290208190555b5060009182526007602090815260408084208490556001600160a01b039094168352600681528383209183525290812055565b600854600090611f1990600190612719565b60008381526009602052604081205460088054939450909284908110611f4157611f41612695565b906000526020600020015490508060088381548110611f6257611f62612695565b6000918252602080832090910192909255828152600990915260408082208490558582528120556008805480611f9a57611f9a61281a565b6001900381819060005260206000200160009055905550505050565b6000611fc183610ebd565b6001600160a01b039093166000908152600660209081526040808320868452825280832085905593825260079052919091209190915550565b6001600160e01b0319811681146109f357600080fd5b60006020828403121561202257600080fd5b81356110a981611ffa565b60005b83811015612048578181015183820152602001612030565b83811115610fc05750506000910152565b6000815180845261207181602086016020860161202d565b601f01601f19169290920160200192915050565b6020815260006110a96020830184612059565b6000602082840312156120aa57600080fd5b5035919050565b80356001600160a01b03811681146120c857600080fd5b919050565b600080604083850312156120e057600080fd5b6120e9836120b1565b946020939093013593505050565b60008060006060848603121561210c57600080fd5b612115846120b1565b9250612123602085016120b1565b9150604084013590509250925092565b634e487b7160e01b600052604160045260246000fd5b604051601f8201601f1916810167ffffffffffffffff8111828210171561217257612172612133565b604052919050565b600067ffffffffffffffff83111561219457612194612133565b6121a7601f8401601f1916602001612149565b90508281528383830111156121bb57600080fd5b828260208301376000602084830101529392505050565b6000602082840312156121e457600080fd5b813567ffffffffffffffff8111156121fb57600080fd5b8201601f8101841361220c57600080fd5b61160d8482356020840161217a565b60006020828403121561222d57600080fd5b6110a9826120b1565b6000806040838503121561224957600080fd5b612252836120b1565b91506020830135801515811461226757600080fd5b809150509250929050565b6000806000806080858703121561228857600080fd5b612291856120b1565b935061229f602086016120b1565b925060408501359150606085013567ffffffffffffffff8111156122c257600080fd5b8501601f810187136122d357600080fd5b6122e28782356020840161217a565b91505092959194509250565b6000602080838503121561230157600080fd5b823567ffffffffffffffff8082111561231957600080fd5b818501915085601f83011261232d57600080fd5b81358181111561233f5761233f612133565b8060051b9150612350848301612149565b818152918301840191848101908884111561236a57600080fd5b938501935b838510156123885784358252938501939085019061236f565b98975050505050505050565b600080604083850312156123a757600080fd5b6123b0836120b1565b91506123be602084016120b1565b90509250929050565b6000806000604084860312156123dc57600080fd5b833567ffffffffffffffff808211156123f457600080fd5b818601915086601f83011261240857600080fd5b81358181111561241757600080fd5b8760208260051b850101111561242c57600080fd5b6020928301989097509590910135949350505050565b600181811c9082168061245657607f821691505b6020821081036110e957634e487b7160e01b600052602260045260246000fd5b6020808252602e908201527f4552433732313a2063616c6c6572206973206e6f7420746f6b656e206f776e6560408201526d1c881b9bdc88185c1c1c9bdd995960921b606082015260800190565b634e487b7160e01b600052601160045260246000fd5b600082198211156124ed576124ed6124c4565b500190565b60208082526038908201527f496620796f75206d696e74207468697320616d6f756e742c20796f752077696c60408201527f6c2065786365656420796f757220616c6c6f636174696f6e0000000000000000606082015260800190565b6000816000190483118215151615612569576125696124c4565b500290565b600060018201612580576125806124c4565b5060010190565b601f82111561096057600081815260208120601f850160051c810160208610156125ae5750805b601f850160051c820191505b818110156125cd578281556001016125ba565b505050505050565b815167ffffffffffffffff8111156125ef576125ef612133565b612603816125fd8454612442565b84612587565b602080601f83116001811461263857600084156126205750858301515b600019600386901b1c1916600185901b1785556125cd565b600085815260208120601f198616915b8281101561266757888601518255948401946001909101908401612648565b50858210156126855787850151600019600388901b60f8161c191681555b5050505050600190811b01905550565b634e487b7160e01b600052603260045260246000fd5b600082516126bd81846020870161202d565b6a3434b23232b7173539b7b760a91b920191825250600b01919050565b600083516126ec81846020880161202d565b83519083019061270081836020880161202d565b64173539b7b760d91b9101908152600501949350505050565b60008282101561272b5761272b6124c4565b500390565b60208082526032908201527f4552433732313a207472616e7366657220746f206e6f6e20455243373231526560408201527131b2b4bb32b91034b6b83632b6b2b73a32b960711b606082015260800190565b634e487b7160e01b600052601260045260246000fd5b6000826127a7576127a7612782565b500490565b6000826127bb576127bb612782565b500690565b6001600160a01b03858116825284166020820152604081018390526080606082018190526000906127f390830184612059565b9695505050505050565b60006020828403121561280f57600080fd5b81516110a981611ffa565b634e487b7160e01b600052603160045260246000fdfea2646970667358221220ca7ee907442f99787d6b0a25f3fb7ac8f4a890e4d5037d273c10a05a25ed7e6864736f6c634300080f0033",
  "immutableReferences": {
    "23": [
      {
        "length": 32,
        "start": 1337
      },
      {
        "length": 32,
        "start": 2922
      },
      {
        "length": 32,
        "start": 5075
      }
    ],
    "26": [
      {
        "length": 32,
        "start": 1389
      },
      {
        "length": 32,
        "start": 4879
      }
    ],
    "29": [
      {
        "length": 32,
        "start": 837
      },
      {
        "length": 32,
        "start": 2726
      }
    ],
    "32": [
      {
        "length": 32,
        "start": 647
      },
      {
        "length": 32,
        "start": 2806
      },
      {
        "length": 32,
        "start": 4959
      }
    ]
  },
  "source": "// SPDX-License-Identifier: MIT\r\n\r\npragma solidity ^0.8.15;\r\nimport \"../node_modules/@openzeppelin/contracts/access/Ownable.sol\";\r\nimport \"../node_modules/@openzeppelin/contracts/token/ERC721/ERC721.sol\";\r\n// import \"../node_modules/erc721a/contracts/ERC721A.sol\";\r\nimport \"../node_modules/@openzeppelin/contracts/token/ERC721/extensions/ERC721Enumerable.sol\";\r\nimport \"../node_modules/@openzeppelin/contracts/utils/cryptography/MerkleProof.sol\";\r\n\r\ncontract Doods is ERC721,ERC721Enumerable,Ownable{\r\n     using Strings for uint256;\r\n     bool public revealed;\r\n    \r\n    address public _owner;\r\n    bytes32  public  rootHash;\r\n\r\n    uint256 public immutable availableToMint = 4444;\r\n    uint256 public immutable mintForPresale = 5;\r\n    uint256 public immutable mintForPublic = 20;\r\n    uint256 public immutable pricePerNFT= 0.005 ether;\r\n\r\n\r\n    mapping(address => uint256) public mintDuringPresale;\r\n    mapping(address => uint256) public mintDuringPublic;\r\n\r\n    bool public isPresaleActive;\r\n    bool public isPublicActive;\r\n\r\n    string public _baseUri;\r\n\r\n    constructor(bytes32 _rootHash)ERC721(\"Doods\",\"DOOD\"){\r\n        rootHash = _rootHash;\r\n        _owner = msg.sender;\r\n\r\n    }\r\n    modifier whenPresaleActive(){\r\n      require(isPresaleActive, \"Presale is not active\");\r\n        _;\r\n    }\r\n    modifier whenPublicActive(){\r\n      require(isPublicActive, \"Public sale is not active\");\r\n        _;\r\n    }\r\n    modifier whenPresaleNotActive(){\r\n      require(!isPresaleActive, \"Presale is active\");\r\n        _;\r\n    }\r\n    modifier whenPublicNotActive(){\r\n      require(!isPublicActive, \"Public sale is active\");\r\n        _;\r\n    }\r\n    function updateHash(bytes32 _newHash) public onlyOwner{\r\n        rootHash = _newHash;\r\n\r\n    }\r\n    function updateBaseUri(string memory _newBaseUri) public onlyOwner{\r\n        _baseUri = _newBaseUri;\r\n    }\r\n    function togglePublicMint() public  onlyOwner{\r\n        isPublicActive = !isPublicActive;\r\n\r\n    }\r\n    function togglePresaleMint()public onlyOwner{\r\n      isPresaleActive = !isPresaleActive;\r\n\r\n    }\r\n    function reveal() public onlyOwner{\r\n        revealed = true;\r\n\r\n    }\r\n    function _baseURI() internal view override returns (string memory) {\r\n        return _baseUri;\r\n    }\r\n\r\n    function isAllowed(bytes32[] memory proof) public view returns(bool){\r\n        bytes32 leaf = keccak256(abi.encodePacked(msg.sender));\r\n        return MerkleProof.verify(proof,rootHash,leaf);\r\n    }\r\n\r\n    function presaleMint(bytes32[] calldata proof,uint256 amount) public payable whenPresaleActive whenPublicNotActive {\r\n        require(isAllowed(proof), \"You are not allowed to mint in this phase\");\r\n        require(mintDuringPresale[msg.sender] + amount <= mintForPresale,\"If you mint this amount, you will exceed your allocation\");\r\n        require( pricePerNFT * amount >= msg.value, \"Send enough funds to cover mint\");\r\n        require(totalSupply() + amount <= availableToMint, \"Minted Out.\");\r\n        uint256 id = totalSupply();\r\n\r\n        for(uint256 i =0 ; i<amount; i++){\r\n            _mint(msg.sender,++id);\r\n\r\n\r\n        }\r\n\r\n        mintDuringPresale[msg.sender] += amount;\r\n\r\n\r\n    }\r\n    function publicMint(uint256 amount) public payable  whenPresaleNotActive whenPublicActive{\r\n\r\n        require(mintDuringPublic[msg.sender] + amount <= mintForPublic,\"If you mint this amount, you will exceed your allocation\");\r\n        require( pricePerNFT* amount >= msg.value, \"Send enough funds to cover mint\");\r\n        require(totalSupply() + amount <= availableToMint, \"Minted Out.\");\r\n        uint256 id = totalSupply();\r\n        for(uint256 i =0 ; i<amount; i++){\r\n            _mint(msg.sender,++id);\r\n\r\n\r\n        }\r\n\r\n\r\n        mintDuringPublic[msg.sender] += amount;\r\n\r\n    } \r\n\r\n\r\n    function withdrawFunds() public  payable onlyOwner{\r\n        (bool success,) = payable(msg.sender).call{value: address(this).balance}(\"\");\r\n        require(success);\r\n\r\n    } \r\n    function _beforeTokenTransfer(\r\n        address from,\r\n        address to,\r\n        uint256 tokenId\r\n     ) internal override(ERC721,ERC721Enumerable) {\r\n        super._beforeTokenTransfer(from, to, tokenId);\r\n\r\n       \r\n    }\r\n\r\n   \r\n    function supportsInterface(bytes4 interfaceId)\r\n        public\r\n        view\r\n        override(ERC721, ERC721Enumerable)\r\n        returns (bool)\r\n    {\r\n        return super.supportsInterface(interfaceId);\r\n    }\r\n\r\n    function tokenURI(uint256 tokenId) public view  override returns (string memory) {\r\n        require(_exists(tokenId), \"ERC721URIStorage: URI query for nonexistent token\");\r\n\r\n        // string memory _tokenURI = _tokenURIs[tokenId];\r\n        string memory base = _baseURI();\r\n\r\n        if (revealed == false) {\r\n            return\r\n                bytes(base).length > 0\r\n                    ? string(abi.encodePacked(base, \"hidden.json\"))\r\n                    : \"\";\r\n        } else {\r\n            return\r\n                bytes(base).length > 0\r\n                    ? string(\r\n                        abi.encodePacked(base, tokenId.toString(), \".json\"))\r\n                    : \"\";\r\n        }\r\n\r\n        \r\n    }\r\n\r\n   \r\n\r\n   \r\n    \r\n\r\n\r\n\r\n\r\n\r\n\r\n\r\n}\r\n\r\n",
  "sourcePath": "C:\\Users\\Daniel Awodeji\\Desktop\\mintingBot\\contracts\\doods.sol",
  "compiler": {
    "name": "solc",
    "version": "0.8.15+commit.e14f2714.Emscripten.clang"
  },
  "schemaVersion": "3.4.4",
  "updatedAt": "2022-10-22T00:42:51.516Z",
  "networkType": "ethereum",
  "devdoc": {
    "kind": "dev",
    "methods": {
      "approve(address,uint256)": {
        "details": "See {IERC721-approve}."
      },
      "balanceOf(address)": {
        "details": "See {IERC721-balanceOf}."
      },
      "getApproved(uint256)": {
        "details": "See {IERC721-getApproved}."
      },
      "isApprovedForAll(address,address)": {
        "details": "See {IERC721-isApprovedForAll}."
      },
      "name()": {
        "details": "See {IERC721Metadata-name}."
      },
      "owner()": {
        "details": "Returns the address of the current owner."
      },
      "ownerOf(uint256)": {
        "details": "See {IERC721-ownerOf}."
      },
      "renounceOwnership()": {
        "details": "Leaves the contract without owner. It will not be possible to call `onlyOwner` functions anymore. Can only be called by the current owner. NOTE: Renouncing ownership will leave the contract without an owner, thereby removing any functionality that is only available to the owner."
      },
      "safeTransferFrom(address,address,uint256)": {
        "details": "See {IERC721-safeTransferFrom}."
      },
      "safeTransferFrom(address,address,uint256,bytes)": {
        "details": "See {IERC721-safeTransferFrom}."
      },
      "setApprovalForAll(address,bool)": {
        "details": "See {IERC721-setApprovalForAll}."
      },
      "symbol()": {
        "details": "See {IERC721Metadata-symbol}."
      },
      "tokenByIndex(uint256)": {
        "details": "See {IERC721Enumerable-tokenByIndex}."
      },
      "tokenOfOwnerByIndex(address,uint256)": {
        "details": "See {IERC721Enumerable-tokenOfOwnerByIndex}."
      },
      "tokenURI(uint256)": {
        "details": "See {IERC721Metadata-tokenURI}."
      },
      "totalSupply()": {
        "details": "See {IERC721Enumerable-totalSupply}."
      },
      "transferFrom(address,address,uint256)": {
        "details": "See {IERC721-transferFrom}."
      },
      "transferOwnership(address)": {
        "details": "Transfers ownership of the contract to a new account (`newOwner`). Can only be called by the current owner."
      }
    },
    "version": 1
  },
  "userdoc": {
    "kind": "user",
    "methods": {},
    "version": 1
  }
}